{
  "contractName": "Voting",
  "abi": [
    {
      "inputs": [
        {
          "internalType": "string",
          "name": "_eventName",
          "type": "string"
        }
      ],
      "stateMutability": "nonpayable",
      "type": "constructor"
    },
    {
      "anonymous": false,
      "inputs": [
        {
          "indexed": false,
          "internalType": "string",
          "name": "msg",
          "type": "string"
        }
      ],
      "name": "success",
      "type": "event"
    },
    {
      "inputs": [
        {
          "internalType": "uint256",
          "name": "",
          "type": "uint256"
        }
      ],
      "name": "candidateList",
      "outputs": [
        {
          "internalType": "string",
          "name": "name",
          "type": "string"
        },
        {
          "internalType": "uint256",
          "name": "age",
          "type": "uint256"
        },
        {
          "internalType": "bool",
          "name": "registered",
          "type": "bool"
        },
        {
          "internalType": "address",
          "name": "candidateAddress",
          "type": "address"
        },
        {
          "internalType": "uint256",
          "name": "votes",
          "type": "uint256"
        }
      ],
      "stateMutability": "view",
      "type": "function",
      "constant": true
    },
    {
      "inputs": [
        {
          "internalType": "address",
          "name": "",
          "type": "address"
        }
      ],
      "name": "candidates",
      "outputs": [
        {
          "internalType": "uint256",
          "name": "",
          "type": "uint256"
        }
      ],
      "stateMutability": "view",
      "type": "function",
      "constant": true
    },
    {
      "inputs": [],
      "name": "eventName",
      "outputs": [
        {
          "internalType": "string",
          "name": "",
          "type": "string"
        }
      ],
      "stateMutability": "view",
      "type": "function",
      "constant": true
    },
    {
      "inputs": [],
      "name": "owner",
      "outputs": [
        {
          "internalType": "address",
          "name": "",
          "type": "address"
        }
      ],
      "stateMutability": "view",
      "type": "function",
      "constant": true
    },
    {
      "inputs": [],
      "name": "totalVote",
      "outputs": [
        {
          "internalType": "uint256",
          "name": "",
          "type": "uint256"
        }
      ],
      "stateMutability": "view",
      "type": "function",
      "constant": true
    },
    {
      "inputs": [
        {
          "internalType": "address",
          "name": "",
          "type": "address"
        }
      ],
      "name": "voterList",
      "outputs": [
        {
          "internalType": "bool",
          "name": "registered",
          "type": "bool"
        },
        {
          "internalType": "bool",
          "name": "voted",
          "type": "bool"
        }
      ],
      "stateMutability": "view",
      "type": "function",
      "constant": true
    },
    {
      "inputs": [],
      "name": "winnerAddress",
      "outputs": [
        {
          "internalType": "address",
          "name": "",
          "type": "address"
        }
      ],
      "stateMutability": "view",
      "type": "function",
      "constant": true
    },
    {
      "inputs": [
        {
          "internalType": "string",
          "name": "_name",
          "type": "string"
        },
        {
          "internalType": "uint256",
          "name": "_age",
          "type": "uint256"
        },
        {
          "internalType": "address",
          "name": "_candidateAddress",
          "type": "address"
        }
      ],
      "name": "registerCandidates",
      "outputs": [],
      "stateMutability": "nonpayable",
      "type": "function"
    },
    {
      "inputs": [
        {
          "internalType": "address",
          "name": "_voterAddress",
          "type": "address"
        }
      ],
      "name": "whiteListAddress",
      "outputs": [],
      "stateMutability": "nonpayable",
      "type": "function"
    },
    {
      "inputs": [],
      "name": "startVoting",
      "outputs": [],
      "stateMutability": "nonpayable",
      "type": "function"
    },
    {
      "inputs": [
        {
          "internalType": "address",
          "name": "_candidateAddress",
          "type": "address"
        }
      ],
      "name": "putVote",
      "outputs": [],
      "stateMutability": "nonpayable",
      "type": "function"
    },
    {
      "inputs": [],
      "name": "stopVoting",
      "outputs": [],
      "stateMutability": "nonpayable",
      "type": "function"
    },
    {
      "inputs": [],
      "name": "getAllCandidate",
      "outputs": [
        {
          "components": [
            {
              "internalType": "string",
              "name": "name",
              "type": "string"
            },
            {
              "internalType": "uint256",
              "name": "age",
              "type": "uint256"
            },
            {
              "internalType": "bool",
              "name": "registered",
              "type": "bool"
            },
            {
              "internalType": "address",
              "name": "candidateAddress",
              "type": "address"
            },
            {
              "internalType": "uint256",
              "name": "votes",
              "type": "uint256"
            }
          ],
          "internalType": "struct Voting.Candidate[]",
          "name": "list",
          "type": "tuple[]"
        }
      ],
      "stateMutability": "view",
      "type": "function",
      "constant": true
    },
    {
      "inputs": [],
      "name": "votingStatus",
      "outputs": [
        {
          "internalType": "bool",
          "name": "",
          "type": "bool"
        }
      ],
      "stateMutability": "view",
      "type": "function",
      "constant": true
    },
    {
      "inputs": [],
      "name": "getWinner",
      "outputs": [
        {
          "components": [
            {
              "internalType": "string",
              "name": "name",
              "type": "string"
            },
            {
              "internalType": "uint256",
              "name": "age",
              "type": "uint256"
            },
            {
              "internalType": "bool",
              "name": "registered",
              "type": "bool"
            },
            {
              "internalType": "address",
              "name": "candidateAddress",
              "type": "address"
            },
            {
              "internalType": "uint256",
              "name": "votes",
              "type": "uint256"
            }
          ],
          "internalType": "struct Voting.Candidate",
          "name": "candidate",
          "type": "tuple"
        }
      ],
      "stateMutability": "view",
      "type": "function",
      "constant": true
    }
  ],
  "bytecode": "0x60806040523480156200001157600080fd5b506040516200296438038062002964833981810160405281019062000037919062000307565b336000806101000a81548173ffffffffffffffffffffffffffffffffffffffff021916908373ffffffffffffffffffffffffffffffffffffffff16021790555080600290805190602001906200008f929190620000ba565b5060006003819055506000600460006101000a81548160ff02191690831515021790555050620003bc565b828054620000c89062000387565b90600052602060002090601f016020900481019282620000ec576000855562000138565b82601f106200010757805160ff191683800117855562000138565b8280016001018555821562000138579182015b82811115620001375782518255916020019190600101906200011a565b5b5090506200014791906200014b565b5090565b5b80821115620001665760008160009055506001016200014c565b5090565b6000604051905090565b600080fd5b600080fd5b600080fd5b600080fd5b6000601f19601f8301169050919050565b7f4e487b7100000000000000000000000000000000000000000000000000000000600052604160045260246000fd5b620001d38262000188565b810181811067ffffffffffffffff82111715620001f557620001f462000199565b5b80604052505050565b60006200020a6200016a565b9050620002188282620001c8565b919050565b600067ffffffffffffffff8211156200023b576200023a62000199565b5b620002468262000188565b9050602081019050919050565b60005b838110156200027357808201518184015260208101905062000256565b8381111562000283576000848401525b50505050565b6000620002a06200029a846200021d565b620001fe565b905082815260208101848484011115620002bf57620002be62000183565b5b620002cc84828562000253565b509392505050565b600082601f830112620002ec57620002eb6200017e565b5b8151620002fe84826020860162000289565b91505092915050565b60006020828403121562000320576200031f62000174565b5b600082015167ffffffffffffffff81111562000341576200034062000179565b5b6200034f84828501620002d4565b91505092915050565b7f4e487b7100000000000000000000000000000000000000000000000000000000600052602260045260246000fd5b60006002820490506001821680620003a057607f821691505b602082108103620003b657620003b562000358565b5b50919050565b61259880620003cc6000396000f3fe608060405234801561001057600080fd5b50600436106100f55760003560e01c80638da5cb5b11610097578063ed7a4e0b11610066578063ed7a4e0b14610265578063efd5297c14610283578063f1cea4c7146102a1578063fab2f86b146102bf576100f5565b80638da5cb5b146101d95780638e7ea5b2146101f7578063b13c744b14610215578063cf52a7b214610249576100f5565b80633c71a6d5116100d35780633c71a6d5146101535780638043c9c01461016f57806388fb6f741461018d5780638ab66a90146101a9576100f5565b806303b4caed146100fa57806319f41a401461012b5780631ec6b60a14610149575b600080fd5b610114600480360381019061010f9190611659565b6102c9565b6040516101229291906116a1565b60405180910390f35b610133610307565b60405161014091906116ca565b60405180910390f35b61015161031e565b005b61016d60048036038101906101689190611861565b6103fe565b005b610177610757565b6040516101849190611958565b60405180910390f35b6101a760048036038101906101a29190611659565b6107e5565b005b6101c360048036038101906101be9190611659565b610c77565b6040516101d09190611989565b60405180910390f35b6101e1610c8f565b6040516101ee91906119b3565b60405180910390f35b6101ff610cb3565b60405161020c9190611abb565b60405180910390f35b61022f600480360381019061022a9190611add565b610ef3565b604051610240959493929190611b0a565b60405180910390f35b610263600480360381019061025e9190611659565b610fee565b005b61026d61127b565b60405161027a91906119b3565b60405180910390f35b61028b6112a1565b6040516102989190611c9c565b60405180910390f35b6102a9611417565b6040516102b69190611989565b60405180910390f35b6102c761141d565b005b60076020528060005260406000206000915090508060000160009054906101000a900460ff16908060000160019054906101000a900460ff16905082565b6000600460009054906101000a900460ff16905090565b60008054906101000a900473ffffffffffffffffffffffffffffffffffffffff1673ffffffffffffffffffffffffffffffffffffffff163373ffffffffffffffffffffffffffffffffffffffff16146103ac576040517f08c379a00000000000000000000000000000000000000000000000000000000081526004016103a390611d0a565b60405180910390fd5b6001600460006101000a81548160ff0219169083151502179055507f68f068b2f0d02fca99bc8285b62fce8668fe16b7c6a810351ea25bff358c0dd86040516103f490611d76565b60405180910390a1565b60008054906101000a900473ffffffffffffffffffffffffffffffffffffffff1673ffffffffffffffffffffffffffffffffffffffff163373ffffffffffffffffffffffffffffffffffffffff161461048c576040517f08c379a000000000000000000000000000000000000000000000000000000000815260040161048390611e08565b60405180910390fd5b60008054906101000a900473ffffffffffffffffffffffffffffffffffffffff1673ffffffffffffffffffffffffffffffffffffffff168173ffffffffffffffffffffffffffffffffffffffff160361051a576040517f08c379a000000000000000000000000000000000000000000000000000000000815260040161051190611e74565b60405180910390fd5b6000600560008373ffffffffffffffffffffffffffffffffffffffff1673ffffffffffffffffffffffffffffffffffffffff168152602001908152602001600020541461059c576040517f08c379a000000000000000000000000000000000000000000000000000000000815260040161059390611ee0565b60405180910390fd5b60006040518060a001604052808581526020018481526020016001151581526020018373ffffffffffffffffffffffffffffffffffffffff1681526020016000815250905060006006805490500361060d576006600181600181540180825580915050039060005260206000209050505b600680549050600560008473ffffffffffffffffffffffffffffffffffffffff1673ffffffffffffffffffffffffffffffffffffffff168152602001908152602001600020819055506006819080600181540180825580915050600190039060005260206000209060040201600090919091909150600082015181600001908051906020019061069e9291906114fd565b506020820151816001015560408201518160020160006101000a81548160ff02191690831515021790555060608201518160020160016101000a81548173ffffffffffffffffffffffffffffffffffffffff021916908373ffffffffffffffffffffffffffffffffffffffff1602179055506080820151816003015550507f68f068b2f0d02fca99bc8285b62fce8668fe16b7c6a810351ea25bff358c0dd860405161074990611f4c565b60405180910390a150505050565b6002805461076490611f9b565b80601f016020809104026020016040519081016040528092919081815260200182805461079090611f9b565b80156107dd5780601f106107b2576101008083540402835291602001916107dd565b820191906000526020600020905b8154815290600101906020018083116107c057829003601f168201915b505050505081565b60011515600460009054906101000a900460ff1615151461083b576040517f08c379a00000000000000000000000000000000000000000000000000000000081526004016108329061203e565b60405180910390fd5b60008054906101000a900473ffffffffffffffffffffffffffffffffffffffff1673ffffffffffffffffffffffffffffffffffffffff163373ffffffffffffffffffffffffffffffffffffffff16036108c9576040517f08c379a00000000000000000000000000000000000000000000000000000000081526004016108c0906120aa565b60405180910390fd5b60011515600760003373ffffffffffffffffffffffffffffffffffffffff1673ffffffffffffffffffffffffffffffffffffffff16815260200190815260200160002060000160009054906101000a900460ff1615151461095f576040517f08c379a000000000000000000000000000000000000000000000000000000000815260040161095690612116565b60405180910390fd5b60001515600760003373ffffffffffffffffffffffffffffffffffffffff1673ffffffffffffffffffffffffffffffffffffffff16815260200190815260200160002060000160019054906101000a900460ff161515146109f5576040517f08c379a00000000000000000000000000000000000000000000000000000000081526004016109ec90612182565b60405180910390fd5b600115156006600560008473ffffffffffffffffffffffffffffffffffffffff1673ffffffffffffffffffffffffffffffffffffffff1681526020019081526020016000205481548110610a4c57610a4b6121a2565b5b906000526020600020906004020160020160009054906101000a900460ff16151514610aad576040517f08c379a0000000000000000000000000000000000000000000000000000000008152600401610aa49061221d565b60405180910390fd5b6006600560008373ffffffffffffffffffffffffffffffffffffffff1673ffffffffffffffffffffffffffffffffffffffff1681526020019081526020016000205481548110610b0057610aff6121a2565b5b90600052602060002090600402016003016000815480929190610b229061226c565b91905055506001600760003373ffffffffffffffffffffffffffffffffffffffff1673ffffffffffffffffffffffffffffffffffffffff16815260200190815260200160002060000160016101000a81548160ff02191690831515021790555060006006600560008473ffffffffffffffffffffffffffffffffffffffff1673ffffffffffffffffffffffffffffffffffffffff1681526020019081526020016000205481548110610bd757610bd66121a2565b5b9060005260206000209060040201600301549050806003541015610c3e578060038190555081600160006101000a81548173ffffffffffffffffffffffffffffffffffffffff021916908373ffffffffffffffffffffffffffffffffffffffff1602179055505b7f68f068b2f0d02fca99bc8285b62fce8668fe16b7c6a810351ea25bff358c0dd8604051610c6b90612300565b60405180910390a15050565b60056020528060005260406000206000915090505481565b60008054906101000a900473ffffffffffffffffffffffffffffffffffffffff1681565b610cbb611583565b60008054906101000a900473ffffffffffffffffffffffffffffffffffffffff1673ffffffffffffffffffffffffffffffffffffffff163373ffffffffffffffffffffffffffffffffffffffff1614610d49576040517f08c379a0000000000000000000000000000000000000000000000000000000008152600401610d409061236c565b60405180910390fd5b600660056000600160009054906101000a900473ffffffffffffffffffffffffffffffffffffffff1673ffffffffffffffffffffffffffffffffffffffff1673ffffffffffffffffffffffffffffffffffffffff1681526020019081526020016000205481548110610dbe57610dbd6121a2565b5b90600052602060002090600402016040518060a0016040529081600082018054610de790611f9b565b80601f0160208091040260200160405190810160405280929190818152602001828054610e1390611f9b565b8015610e605780601f10610e3557610100808354040283529160200191610e60565b820191906000526020600020905b815481529060010190602001808311610e4357829003601f168201915b50505050508152602001600182015481526020016002820160009054906101000a900460ff161515151581526020016002820160019054906101000a900473ffffffffffffffffffffffffffffffffffffffff1673ffffffffffffffffffffffffffffffffffffffff1673ffffffffffffffffffffffffffffffffffffffff168152602001600382015481525050905090565b60068181548110610f0357600080fd5b9060005260206000209060040201600091509050806000018054610f2690611f9b565b80601f0160208091040260200160405190810160405280929190818152602001828054610f5290611f9b565b8015610f9f5780601f10610f7457610100808354040283529160200191610f9f565b820191906000526020600020905b815481529060010190602001808311610f8257829003601f168201915b5050505050908060010154908060020160009054906101000a900460ff16908060020160019054906101000a900473ffffffffffffffffffffffffffffffffffffffff16908060030154905085565b60008054906101000a900473ffffffffffffffffffffffffffffffffffffffff1673ffffffffffffffffffffffffffffffffffffffff168173ffffffffffffffffffffffffffffffffffffffff160361107c576040517f08c379a0000000000000000000000000000000000000000000000000000000008152600401611073906120aa565b60405180910390fd5b60008054906101000a900473ffffffffffffffffffffffffffffffffffffffff1673ffffffffffffffffffffffffffffffffffffffff163373ffffffffffffffffffffffffffffffffffffffff161461110a576040517f08c379a0000000000000000000000000000000000000000000000000000000008152600401611101906123fe565b60405180910390fd5b60001515600760008373ffffffffffffffffffffffffffffffffffffffff1673ffffffffffffffffffffffffffffffffffffffff16815260200190815260200160002060000160009054906101000a900460ff161515146111a0576040517f08c379a00000000000000000000000000000000000000000000000000000000081526004016111979061246a565b60405180910390fd5b6000604051806040016040528060011515815260200160001515815250905080600760008473ffffffffffffffffffffffffffffffffffffffff1673ffffffffffffffffffffffffffffffffffffffff16815260200190815260200160002060008201518160000160006101000a81548160ff02191690831515021790555060208201518160000160016101000a81548160ff0219169083151502179055509050507f68f068b2f0d02fca99bc8285b62fce8668fe16b7c6a810351ea25bff358c0dd860405161126f906124d6565b60405180910390a15050565b600160009054906101000a900473ffffffffffffffffffffffffffffffffffffffff1681565b60606006805480602002602001604051908101604052809291908181526020016000905b8282101561140e57838290600052602060002090600402016040518060a00160405290816000820180546112f890611f9b565b80601f016020809104026020016040519081016040528092919081815260200182805461132490611f9b565b80156113715780601f1061134657610100808354040283529160200191611371565b820191906000526020600020905b81548152906001019060200180831161135457829003601f168201915b50505050508152602001600182015481526020016002820160009054906101000a900460ff161515151581526020016002820160019054906101000a900473ffffffffffffffffffffffffffffffffffffffff1673ffffffffffffffffffffffffffffffffffffffff1673ffffffffffffffffffffffffffffffffffffffff168152602001600382015481525050815260200190600101906112c5565b50505050905090565b60035481565b60008054906101000a900473ffffffffffffffffffffffffffffffffffffffff1673ffffffffffffffffffffffffffffffffffffffff163373ffffffffffffffffffffffffffffffffffffffff16146114ab576040517f08c379a00000000000000000000000000000000000000000000000000000000081526004016114a290611d0a565b60405180910390fd5b6000600460006101000a81548160ff0219169083151502179055507f68f068b2f0d02fca99bc8285b62fce8668fe16b7c6a810351ea25bff358c0dd86040516114f390612542565b60405180910390a1565b82805461150990611f9b565b90600052602060002090601f01602090048101928261152b5760008555611572565b82601f1061154457805160ff1916838001178555611572565b82800160010185558215611572579182015b82811115611571578251825591602001919060010190611556565b5b50905061157f91906115ca565b5090565b6040518060a001604052806060815260200160008152602001600015158152602001600073ffffffffffffffffffffffffffffffffffffffff168152602001600081525090565b5b808211156115e35760008160009055506001016115cb565b5090565b6000604051905090565b600080fd5b600080fd5b600073ffffffffffffffffffffffffffffffffffffffff82169050919050565b6000611626826115fb565b9050919050565b6116368161161b565b811461164157600080fd5b50565b6000813590506116538161162d565b92915050565b60006020828403121561166f5761166e6115f1565b5b600061167d84828501611644565b91505092915050565b60008115159050919050565b61169b81611686565b82525050565b60006040820190506116b66000830185611692565b6116c36020830184611692565b9392505050565b60006020820190506116df6000830184611692565b92915050565b600080fd5b600080fd5b6000601f19601f8301169050919050565b7f4e487b7100000000000000000000000000000000000000000000000000000000600052604160045260246000fd5b611738826116ef565b810181811067ffffffffffffffff8211171561175757611756611700565b5b80604052505050565b600061176a6115e7565b9050611776828261172f565b919050565b600067ffffffffffffffff82111561179657611795611700565b5b61179f826116ef565b9050602081019050919050565b82818337600083830152505050565b60006117ce6117c98461177b565b611760565b9050828152602081018484840111156117ea576117e96116ea565b5b6117f58482856117ac565b509392505050565b600082601f830112611812576118116116e5565b5b81356118228482602086016117bb565b91505092915050565b6000819050919050565b61183e8161182b565b811461184957600080fd5b50565b60008135905061185b81611835565b92915050565b60008060006060848603121561187a576118796115f1565b5b600084013567ffffffffffffffff811115611898576118976115f6565b5b6118a4868287016117fd565b93505060206118b58682870161184c565b92505060406118c686828701611644565b9150509250925092565b600081519050919050565b600082825260208201905092915050565b60005b8381101561190a5780820151818401526020810190506118ef565b83811115611919576000848401525b50505050565b600061192a826118d0565b61193481856118db565b93506119448185602086016118ec565b61194d816116ef565b840191505092915050565b60006020820190508181036000830152611972818461191f565b905092915050565b6119838161182b565b82525050565b600060208201905061199e600083018461197a565b92915050565b6119ad8161161b565b82525050565b60006020820190506119c860008301846119a4565b92915050565b600082825260208201905092915050565b60006119ea826118d0565b6119f481856119ce565b9350611a048185602086016118ec565b611a0d816116ef565b840191505092915050565b611a218161182b565b82525050565b611a3081611686565b82525050565b611a3f8161161b565b82525050565b600060a0830160008301518482036000860152611a6282826119df565b9150506020830151611a776020860182611a18565b506040830151611a8a6040860182611a27565b506060830151611a9d6060860182611a36565b506080830151611ab06080860182611a18565b508091505092915050565b60006020820190508181036000830152611ad58184611a45565b905092915050565b600060208284031215611af357611af26115f1565b5b6000611b018482850161184c565b91505092915050565b600060a0820190508181036000830152611b24818861191f565b9050611b33602083018761197a565b611b406040830186611692565b611b4d60608301856119a4565b611b5a608083018461197a565b9695505050505050565b600081519050919050565b600082825260208201905092915050565b6000819050602082019050919050565b600060a0830160008301518482036000860152611bad82826119df565b9150506020830151611bc26020860182611a18565b506040830151611bd56040860182611a27565b506060830151611be86060860182611a36565b506080830151611bfb6080860182611a18565b508091505092915050565b6000611c128383611b90565b905092915050565b6000602082019050919050565b6000611c3282611b64565b611c3c8185611b6f565b935083602082028501611c4e85611b80565b8060005b85811015611c8a5784840389528151611c6b8582611c06565b9450611c7683611c1a565b925060208a01995050600181019050611c52565b50829750879550505050505092915050565b60006020820190508181036000830152611cb68184611c27565b905092915050565b7f4f6e6c79206f776e65722063616e20737461727420766f74696e672121000000600082015250565b6000611cf4601d836118db565b9150611cff82611cbe565b602082019050919050565b60006020820190508181036000830152611d2381611ce7565b9050919050565b7f566f74696e672053746172746564212100000000000000000000000000000000600082015250565b6000611d606010836118db565b9150611d6b82611d2a565b602082019050919050565b60006020820190508181036000830152611d8f81611d53565b9050919050565b7f4f6e6c79206f776e65722063616e2072656769737465722043616e646964617460008201527f6521210000000000000000000000000000000000000000000000000000000000602082015250565b6000611df26023836118db565b9150611dfd82611d96565b604082019050919050565b60006020820190508181036000830152611e2181611de5565b9050919050565b7f4f776e65722063616e206e6f7420706172746963697061746521210000000000600082015250565b6000611e5e601b836118db565b9150611e6982611e28565b602082019050919050565b60006020820190508181036000830152611e8d81611e51565b9050919050565b7f43616e64696461746520616c7265616479207265676973746572656400000000600082015250565b6000611eca601c836118db565b9150611ed582611e94565b602082019050919050565b60006020820190508181036000830152611ef981611ebd565b9050919050565b7f43616e6469646174652072656769737465726564212100000000000000000000600082015250565b6000611f366016836118db565b9150611f4182611f00565b602082019050919050565b60006020820190508181036000830152611f6581611f29565b9050919050565b7f4e487b7100000000000000000000000000000000000000000000000000000000600052602260045260246000fd5b60006002820490506001821680611fb357607f821691505b602082108103611fc657611fc5611f6c565b5b50919050565b7f566f74696e67206e6f74207374617274656420796574206f7220656e6465642160008201527f2100000000000000000000000000000000000000000000000000000000000000602082015250565b60006120286021836118db565b915061203382611fcc565b604082019050919050565b600060208201905081810360008301526120578161201b565b9050919050565b7f4f776e65722063616e206e6f7420766f74652121000000000000000000000000600082015250565b60006120946014836118db565b915061209f8261205e565b602082019050919050565b600060208201905081810360008301526120c381612087565b9050919050565b7f566f746572206e6f742072656769737465726564212100000000000000000000600082015250565b60006121006016836118db565b915061210b826120ca565b602082019050919050565b6000602082019050818103600083015261212f816120f3565b9050919050565b7f416c726561647920766f74656421210000000000000000000000000000000000600082015250565b600061216c600f836118db565b915061217782612136565b602082019050919050565b6000602082019050818103600083015261219b8161215f565b9050919050565b7f4e487b7100000000000000000000000000000000000000000000000000000000600052603260045260246000fd5b7f43616e646964617465206e6f7420726567697374657265640000000000000000600082015250565b60006122076018836118db565b9150612212826121d1565b602082019050919050565b60006020820190508181036000830152612236816121fa565b9050919050565b7f4e487b7100000000000000000000000000000000000000000000000000000000600052601160045260246000fd5b60006122778261182b565b91507fffffffffffffffffffffffffffffffffffffffffffffffffffffffffffffffff82036122a9576122a861223d565b5b600182019050919050565b7f566f746564202121000000000000000000000000000000000000000000000000600082015250565b60006122ea6008836118db565b91506122f5826122b4565b602082019050919050565b60006020820190508181036000830152612319816122dd565b9050919050565b7f4f6e6c79206f776e65722063616e206465636c6172652077696e6e6572212100600082015250565b6000612356601f836118db565b915061236182612320565b602082019050919050565b6000602082019050818103600083015261238581612349565b9050919050565b7f4f6e6c79206f776e65722063616e2077686974656c697374207468652061646460008201527f7265737365732121000000000000000000000000000000000000000000000000602082015250565b60006123e86028836118db565b91506123f38261238c565b604082019050919050565b60006020820190508181036000830152612417816123db565b9050919050565b7f566f74657220616c726561647920726567697374657265642121000000000000600082015250565b6000612454601a836118db565b915061245f8261241e565b602082019050919050565b6000602082019050818103600083015261248381612447565b9050919050565b7f566f746572207265676973746572656421210000000000000000000000000000600082015250565b60006124c06012836118db565b91506124cb8261248a565b602082019050919050565b600060208201905081810360008301526124ef816124b3565b9050919050565b7f566f74696e672073746f70656421210000000000000000000000000000000000600082015250565b600061252c600f836118db565b9150612537826124f6565b602082019050919050565b6000602082019050818103600083015261255b8161251f565b905091905056fea26469706673582212202d3dfe977a103830aeec486137ac425f0f357a3e55f245042e2835b1c905abfb64736f6c634300080d0033",
  "immutableReferences": {},
  "source": "// SPDX-License-Identifier: GPL-3.0\n\npragma solidity ^0.8.13;\n\ncontract Voting {\n\n    address public owner;\n    address public winnerAddress;\n    string public eventName;\n    uint public totalVote;\n    bool votingStarted;\n\n    struct Candidate{\n        string name;\n        uint age;\n        bool registered;\n        address candidateAddress;\n        uint votes;\n    }\n\n    struct Voter{\n        bool registered;\n        bool voted;\n    }\n\n    event success(string msg);\n    mapping(address=>uint) public candidates;\n    Candidate[] public candidateList;\n    mapping(address=>Voter) public voterList;\n\n    constructor(string memory _eventName){\n        owner = msg.sender;\n        eventName = _eventName;\n        totalVote = 0;\n        votingStarted=false;\n    }\n\n    function registerCandidates(string memory _name, uint _age, address _candidateAddress) external {\n        require(msg.sender == owner, \"Only owner can register Candidate!!\");\n        require(_candidateAddress != owner, \"Owner can not participate!!\");\n        require(candidates[_candidateAddress] == 0, \"Candidate already registered\");\n        Candidate memory candidate = Candidate({\n            name: _name,\n            age: _age,\n            registered: true,\n            votes: 0,\n            candidateAddress: _candidateAddress\n        });\n        if(candidateList.length == 0){ //not pushing any candidate on location zero;\n            candidateList.push();\n        }\n        candidates[_candidateAddress] = candidateList.length;\n        candidateList.push(candidate);\n        emit success(\"Candidate registered!!\");\n    }\n\n    function whiteListAddress(address _voterAddress) external {\n        require(_voterAddress != owner, \"Owner can not vote!!\");\n        require(msg.sender == owner, \"Only owner can whitelist the addresses!!\");\n        require(voterList[_voterAddress].registered == false, \"Voter already registered!!\");\n        Voter memory voter = Voter({\n            registered: true,\n            voted: false\n        });\n\n        voterList[_voterAddress] = voter;\n        emit success(\"Voter registered!!\");\n    }\n\n    function startVoting() external {\n        require(msg.sender == owner, \"Only owner can start voting!!\");\n        votingStarted = true;\n        emit success(\"Voting Started!!\");\n    }\n\n    function putVote(address _candidateAddress) external {\n        require(votingStarted == true, \"Voting not started yet or ended!!\");\n        require(msg.sender != owner, \"Owner can not vote!!\");\n        require(voterList[msg.sender].registered == true, \"Voter not registered!!\");\n        require(voterList[msg.sender].voted == false, \"Already voted!!\");\n        require(candidateList[candidates[_candidateAddress]].registered == true, \"Candidate not registered\");\n\n        candidateList[candidates[_candidateAddress]].votes++;\n        voterList[msg.sender].voted =true;\n\n        uint candidateVotes = candidateList[candidates[_candidateAddress]].votes;\n\n        if(totalVote < candidateVotes){\n            totalVote = candidateVotes;\n            winnerAddress = _candidateAddress;\n        }\n        emit success(\"Voted !!\");\n        \n    }\n\n    function stopVoting() external {\n        require(msg.sender == owner, \"Only owner can start voting!!\");\n        votingStarted = false;\n        emit success(\"Voting stoped!!\");\n    }\n\n    function getAllCandidate() external view returns(Candidate[] memory list){\n        return candidateList;\n    }\n\n    function votingStatus() external view returns(bool){\n        return votingStarted;\n    }\n\n    function getWinner() public view returns(Candidate memory candidate){\n        require(msg.sender == owner, \"Only owner can declare winner!!\");\n        return candidateList[candidates[winnerAddress]];\n    }\n}",
  "sourcePath": "/home/shubham/DELETE_PROJECT/Voting-Dapp/contract_folder/contracts/Voting.sol",
  "compiler": {
    "name": "solc",
    "version": "0.8.13+commit.abaa5c0e.Emscripten.clang"
  },
  "schemaVersion": "3.4.10",
  "updatedAt": "2023-09-21T11:00:38.882Z",
  "networkType": "ethereum",
  "devdoc": {
    "kind": "dev",
    "methods": {},
    "version": 1
  },
  "userdoc": {
    "kind": "user",
    "methods": {},
    "version": 1
  }
}